{
  "contractName": "NFTLootBox",
  "abi": [
    {
      "inputs": [],
      "stateMutability": "nonpayable",
      "type": "constructor"
    },
    {
      "anonymous": false,
      "inputs": [
        {
          "indexed": true,
          "internalType": "address",
          "name": "owner",
          "type": "address"
        },
        {
          "indexed": true,
          "internalType": "address",
          "name": "approved",
          "type": "address"
        },
        {
          "indexed": true,
          "internalType": "uint256",
          "name": "tokenId",
          "type": "uint256"
        }
      ],
      "name": "Approval",
      "type": "event"
    },
    {
      "anonymous": false,
      "inputs": [
        {
          "indexed": true,
          "internalType": "address",
          "name": "owner",
          "type": "address"
        },
        {
          "indexed": true,
          "internalType": "address",
          "name": "operator",
          "type": "address"
        },
        {
          "indexed": false,
          "internalType": "bool",
          "name": "approved",
          "type": "bool"
        }
      ],
      "name": "ApprovalForAll",
      "type": "event"
    },
    {
      "anonymous": false,
      "inputs": [
        {
          "indexed": true,
          "internalType": "address",
          "name": "previousOwner",
          "type": "address"
        },
        {
          "indexed": true,
          "internalType": "address",
          "name": "newOwner",
          "type": "address"
        }
      ],
      "name": "OwnershipTransferred",
      "type": "event"
    },
    {
      "anonymous": false,
      "inputs": [
        {
          "indexed": true,
          "internalType": "address",
          "name": "from",
          "type": "address"
        },
        {
          "indexed": true,
          "internalType": "address",
          "name": "to",
          "type": "address"
        },
        {
          "indexed": true,
          "internalType": "uint256",
          "name": "tokenId",
          "type": "uint256"
        }
      ],
      "name": "Transfer",
      "type": "event"
    },
    {
      "anonymous": false,
      "inputs": [
        {
          "indexed": false,
          "internalType": "uint256",
          "name": "recipient_balance",
          "type": "uint256"
        },
        {
          "indexed": false,
          "internalType": "uint256",
          "name": "nftPrice",
          "type": "uint256"
        }
      ],
      "name": "mintNFTLog",
      "type": "event"
    },
    {
      "inputs": [
        {
          "internalType": "address",
          "name": "to",
          "type": "address"
        },
        {
          "internalType": "uint256",
          "name": "tokenId",
          "type": "uint256"
        }
      ],
      "name": "approve",
      "outputs": [],
      "stateMutability": "nonpayable",
      "type": "function"
    },
    {
      "inputs": [
        {
          "internalType": "address",
          "name": "owner",
          "type": "address"
        }
      ],
      "name": "balanceOf",
      "outputs": [
        {
          "internalType": "uint256",
          "name": "",
          "type": "uint256"
        }
      ],
      "stateMutability": "view",
      "type": "function",
      "constant": true
    },
    {
      "inputs": [
        {
          "internalType": "uint256",
          "name": "tokenId",
          "type": "uint256"
        }
      ],
      "name": "getApproved",
      "outputs": [
        {
          "internalType": "address",
          "name": "",
          "type": "address"
        }
      ],
      "stateMutability": "view",
      "type": "function",
      "constant": true
    },
    {
      "inputs": [
        {
          "internalType": "address",
          "name": "owner",
          "type": "address"
        },
        {
          "internalType": "address",
          "name": "operator",
          "type": "address"
        }
      ],
      "name": "isApprovedForAll",
      "outputs": [
        {
          "internalType": "bool",
          "name": "",
          "type": "bool"
        }
      ],
      "stateMutability": "view",
      "type": "function",
      "constant": true
    },
    {
      "inputs": [],
      "name": "name",
      "outputs": [
        {
          "internalType": "string",
          "name": "",
          "type": "string"
        }
      ],
      "stateMutability": "view",
      "type": "function",
      "constant": true
    },
    {
      "inputs": [],
      "name": "owner",
      "outputs": [
        {
          "internalType": "address",
          "name": "",
          "type": "address"
        }
      ],
      "stateMutability": "view",
      "type": "function",
      "constant": true
    },
    {
      "inputs": [
        {
          "internalType": "uint256",
          "name": "tokenId",
          "type": "uint256"
        }
      ],
      "name": "ownerOf",
      "outputs": [
        {
          "internalType": "address",
          "name": "",
          "type": "address"
        }
      ],
      "stateMutability": "view",
      "type": "function",
      "constant": true
    },
    {
      "inputs": [],
      "name": "renounceOwnership",
      "outputs": [],
      "stateMutability": "nonpayable",
      "type": "function"
    },
    {
      "inputs": [
        {
          "internalType": "address",
          "name": "from",
          "type": "address"
        },
        {
          "internalType": "address",
          "name": "to",
          "type": "address"
        },
        {
          "internalType": "uint256",
          "name": "tokenId",
          "type": "uint256"
        }
      ],
      "name": "safeTransferFrom",
      "outputs": [],
      "stateMutability": "nonpayable",
      "type": "function"
    },
    {
      "inputs": [
        {
          "internalType": "address",
          "name": "from",
          "type": "address"
        },
        {
          "internalType": "address",
          "name": "to",
          "type": "address"
        },
        {
          "internalType": "uint256",
          "name": "tokenId",
          "type": "uint256"
        },
        {
          "internalType": "bytes",
          "name": "_data",
          "type": "bytes"
        }
      ],
      "name": "safeTransferFrom",
      "outputs": [],
      "stateMutability": "nonpayable",
      "type": "function"
    },
    {
      "inputs": [
        {
          "internalType": "address",
          "name": "operator",
          "type": "address"
        },
        {
          "internalType": "bool",
          "name": "approved",
          "type": "bool"
        }
      ],
      "name": "setApprovalForAll",
      "outputs": [],
      "stateMutability": "nonpayable",
      "type": "function"
    },
    {
      "inputs": [
        {
          "internalType": "bytes4",
          "name": "interfaceId",
          "type": "bytes4"
        }
      ],
      "name": "supportsInterface",
      "outputs": [
        {
          "internalType": "bool",
          "name": "",
          "type": "bool"
        }
      ],
      "stateMutability": "view",
      "type": "function",
      "constant": true
    },
    {
      "inputs": [],
      "name": "symbol",
      "outputs": [
        {
          "internalType": "string",
          "name": "",
          "type": "string"
        }
      ],
      "stateMutability": "view",
      "type": "function",
      "constant": true
    },
    {
      "inputs": [
        {
          "internalType": "uint256",
          "name": "tokenId",
          "type": "uint256"
        }
      ],
      "name": "tokenURI",
      "outputs": [
        {
          "internalType": "string",
          "name": "",
          "type": "string"
        }
      ],
      "stateMutability": "view",
      "type": "function",
      "constant": true
    },
    {
      "inputs": [
        {
          "internalType": "address",
          "name": "from",
          "type": "address"
        },
        {
          "internalType": "address",
          "name": "to",
          "type": "address"
        },
        {
          "internalType": "uint256",
          "name": "tokenId",
          "type": "uint256"
        }
      ],
      "name": "transferFrom",
      "outputs": [],
      "stateMutability": "nonpayable",
      "type": "function"
    },
    {
      "inputs": [
        {
          "internalType": "address",
          "name": "newOwner",
          "type": "address"
        }
      ],
      "name": "transferOwnership",
      "outputs": [],
      "stateMutability": "nonpayable",
      "type": "function"
    },
    {
      "inputs": [
        {
          "internalType": "address",
          "name": "recipient",
          "type": "address"
        },
        {
          "internalType": "string",
          "name": "tokenURI",
          "type": "string"
        }
      ],
      "name": "mintNFT",
      "outputs": [
        {
          "internalType": "uint256",
          "name": "",
          "type": "uint256"
        }
      ],
      "stateMutability": "nonpayable",
      "type": "function"
    },
    {
      "inputs": [
        {
          "internalType": "address",
          "name": "tokenAddress",
          "type": "address"
        }
      ],
      "name": "setToken",
      "outputs": [
        {
          "internalType": "bool",
          "name": "",
          "type": "bool"
        }
      ],
      "stateMutability": "nonpayable",
      "type": "function"
    },
    {
      "inputs": [],
      "name": "getNftPrice",
      "outputs": [
        {
          "internalType": "uint256",
          "name": "",
          "type": "uint256"
        }
      ],
      "stateMutability": "view",
      "type": "function",
      "constant": true
    }
  ],
  "bytecode": "0x60806040523480156200001157600080fd5b506040518060400160405280600681526020017f4d794e46547300000000000000000000000000000000000000000000000000008152506040518060400160405280600481526020017f4d4e465400000000000000000000000000000000000000000000000000000000815250816000908051906020019062000096929190620001b6565b508060019080519060200190620000af929190620001b6565b505050620000d2620000c6620000e860201b60201c565b620000f060201b60201c565b68056bc75e2d63100000600a81905550620002cb565b600033905090565b6000600760009054906101000a900473ffffffffffffffffffffffffffffffffffffffff16905081600760006101000a81548173ffffffffffffffffffffffffffffffffffffffff021916908373ffffffffffffffffffffffffffffffffffffffff1602179055508173ffffffffffffffffffffffffffffffffffffffff168173ffffffffffffffffffffffffffffffffffffffff167f8be0079c531659141344cd1fd0a4f28419497f9722a3daafe3b4186f6b6457e060405160405180910390a35050565b828054620001c49062000295565b90600052602060002090601f016020900481019282620001e8576000855562000234565b82601f106200020357805160ff191683800117855562000234565b8280016001018555821562000234579182015b828111156200023357825182559160200191906001019062000216565b5b50905062000243919062000247565b5090565b5b808211156200026257600081600090555060010162000248565b5090565b7f4e487b7100000000000000000000000000000000000000000000000000000000600052602260045260246000fd5b60006002820490506001821680620002ae57607f821691505b60208210811415620002c557620002c462000266565b5b50919050565b61345d80620002db6000396000f3fe608060405234801561001057600080fd5b50600436106101215760003560e01c8063715018a6116100ad578063c491277411610071578063c491277414610306578063c87b56dd14610324578063e985e9c514610354578063eacabe1414610384578063f2fde38b146103b457610121565b8063715018a6146102885780638da5cb5b1461029257806395d89b41146102b0578063a22cb465146102ce578063b88d4fde146102ea57610121565b8063144fa6d7116100f4578063144fa6d7146101c057806323b872dd146101f057806342842e0e1461020c5780636352211e1461022857806370a082311461025857610121565b806301ffc9a71461012657806306fdde0314610156578063081812fc14610174578063095ea7b3146101a4575b600080fd5b610140600480360381019061013b9190611fdd565b6103d0565b60405161014d9190612025565b60405180910390f35b61015e6104b2565b60405161016b91906120d9565b60405180910390f35b61018e60048036038101906101899190612131565b610544565b60405161019b919061219f565b60405180910390f35b6101be60048036038101906101b991906121e6565b6105c9565b005b6101da60048036038101906101d59190612226565b6106e1565b6040516101e79190612025565b60405180910390f35b61020a60048036038101906102059190612253565b6107e3565b005b61022660048036038101906102219190612253565b610843565b005b610242600480360381019061023d9190612131565b610863565b60405161024f919061219f565b60405180910390f35b610272600480360381019061026d9190612226565b610915565b60405161027f91906122b5565b60405180910390f35b6102906109cd565b005b61029a610a55565b6040516102a7919061219f565b60405180910390f35b6102b8610a7f565b6040516102c591906120d9565b60405180910390f35b6102e860048036038101906102e391906122fc565b610b11565b005b61030460048036038101906102ff9190612471565b610b27565b005b61030e610b89565b60405161031b91906122b5565b60405180910390f35b61033e60048036038101906103399190612131565b610b93565b60405161034b91906120d9565b60405180910390f35b61036e600480360381019061036991906124f4565b610ce5565b60405161037b9190612025565b60405180910390f35b61039e600480360381019061039991906125d5565b610d79565b6040516103ab91906122b5565b60405180910390f35b6103ce60048036038101906103c99190612226565b611051565b005b60007f80ac58cd000000000000000000000000000000000000000000000000000000007bffffffffffffffffffffffffffffffffffffffffffffffffffffffff1916827bffffffffffffffffffffffffffffffffffffffffffffffffffffffff1916148061049b57507f5b5e139f000000000000000000000000000000000000000000000000000000007bffffffffffffffffffffffffffffffffffffffffffffffffffffffff1916827bffffffffffffffffffffffffffffffffffffffffffffffffffffffff1916145b806104ab57506104aa82611149565b5b9050919050565b6060600080546104c190612660565b80601f01602080910402602001604051908101604052809291908181526020018280546104ed90612660565b801561053a5780601f1061050f5761010080835404028352916020019161053a565b820191906000526020600020905b81548152906001019060200180831161051d57829003601f168201915b5050505050905090565b600061054f826111b3565b61058e576040517f08c379a000000000000000000000000000000000000000000000000000000000815260040161058590612704565b60405180910390fd5b6004600083815260200190815260200160002060009054906101000a900473ffffffffffffffffffffffffffffffffffffffff169050919050565b60006105d482610863565b90508073ffffffffffffffffffffffffffffffffffffffff168373ffffffffffffffffffffffffffffffffffffffff161415610645576040517f08c379a000000000000000000000000000000000000000000000000000000000815260040161063c90612796565b60405180910390fd5b8073ffffffffffffffffffffffffffffffffffffffff1661066461121f565b73ffffffffffffffffffffffffffffffffffffffff16148061069357506106928161068d61121f565b610ce5565b5b6106d2576040517f08c379a00000000000000000000000000000000000000000000000000000000081526004016106c990612828565b60405180910390fd5b6106dc8383611227565b505050565b60006106eb61121f565b73ffffffffffffffffffffffffffffffffffffffff16610709610a55565b73ffffffffffffffffffffffffffffffffffffffff161461075f576040517f08c379a000000000000000000000000000000000000000000000000000000000815260040161075690612894565b60405180910390fd5b600073ffffffffffffffffffffffffffffffffffffffff168273ffffffffffffffffffffffffffffffffffffffff16141561079957600080fd5b81600960006101000a81548173ffffffffffffffffffffffffffffffffffffffff021916908373ffffffffffffffffffffffffffffffffffffffff16021790555060019050919050565b6107f46107ee61121f565b826112e0565b610833576040517f08c379a000000000000000000000000000000000000000000000000000000000815260040161082a90612926565b60405180910390fd5b61083e8383836113be565b505050565b61085e83838360405180602001604052806000815250610b27565b505050565b6000806002600084815260200190815260200160002060009054906101000a900473ffffffffffffffffffffffffffffffffffffffff169050600073ffffffffffffffffffffffffffffffffffffffff168173ffffffffffffffffffffffffffffffffffffffff16141561090c576040517f08c379a0000000000000000000000000000000000000000000000000000000008152600401610903906129b8565b60405180910390fd5b80915050919050565b60008073ffffffffffffffffffffffffffffffffffffffff168273ffffffffffffffffffffffffffffffffffffffff161415610986576040517f08c379a000000000000000000000000000000000000000000000000000000000815260040161097d90612a4a565b60405180910390fd5b600360008373ffffffffffffffffffffffffffffffffffffffff1673ffffffffffffffffffffffffffffffffffffffff168152602001908152602001600020549050919050565b6109d561121f565b73ffffffffffffffffffffffffffffffffffffffff166109f3610a55565b73ffffffffffffffffffffffffffffffffffffffff1614610a49576040517f08c379a0000000000000000000000000000000000000000000000000000000008152600401610a4090612894565b60405180910390fd5b610a53600061161a565b565b6000600760009054906101000a900473ffffffffffffffffffffffffffffffffffffffff16905090565b606060018054610a8e90612660565b80601f0160208091040260200160405190810160405280929190818152602001828054610aba90612660565b8015610b075780601f10610adc57610100808354040283529160200191610b07565b820191906000526020600020905b815481529060010190602001808311610aea57829003601f168201915b5050505050905090565b610b23610b1c61121f565b83836116e0565b5050565b610b38610b3261121f565b836112e0565b610b77576040517f08c379a0000000000000000000000000000000000000000000000000000000008152600401610b6e90612926565b60405180910390fd5b610b838484848461184d565b50505050565b6000600a54905090565b6060610b9e826111b3565b610bdd576040517f08c379a0000000000000000000000000000000000000000000000000000000008152600401610bd490612adc565b60405180910390fd5b6000600660008481526020019081526020016000208054610bfd90612660565b80601f0160208091040260200160405190810160405280929190818152602001828054610c2990612660565b8015610c765780601f10610c4b57610100808354040283529160200191610c76565b820191906000526020600020905b815481529060010190602001808311610c5957829003601f168201915b505050505090506000610c876118a9565b9050600081511415610c9d578192505050610ce0565b600082511115610cd2578082604051602001610cba929190612b38565b60405160208183030381529060405292505050610ce0565b610cdb846118c0565b925050505b919050565b6000600560008473ffffffffffffffffffffffffffffffffffffffff1673ffffffffffffffffffffffffffffffffffffffff16815260200190815260200160002060008373ffffffffffffffffffffffffffffffffffffffff1673ffffffffffffffffffffffffffffffffffffffff16815260200190815260200160002060009054906101000a900460ff16905092915050565b6000610d8361121f565b73ffffffffffffffffffffffffffffffffffffffff16610da1610a55565b73ffffffffffffffffffffffffffffffffffffffff1614610df7576040517f08c379a0000000000000000000000000000000000000000000000000000000008152600401610dee90612894565b60405180910390fd5b7f69efac9c73b6da6ce8f6a683be28ccf76c5045aa837707dc91fb2e0f0ba6e914600960009054906101000a900473ffffffffffffffffffffffffffffffffffffffff1673ffffffffffffffffffffffffffffffffffffffff166370a08231856040518263ffffffff1660e01b8152600401610e73919061219f565b602060405180830381865afa158015610e90573d6000803e3d6000fd5b505050506040513d601f19601f82011682018060405250810190610eb49190612b71565b600a54604051610ec5929190612b9e565b60405180910390a1600a54600960009054906101000a900473ffffffffffffffffffffffffffffffffffffffff1673ffffffffffffffffffffffffffffffffffffffff166370a08231856040518263ffffffff1660e01b8152600401610f2b919061219f565b602060405180830381865afa158015610f48573d6000803e3d6000fd5b505050506040513d601f19601f82011682018060405250810190610f6c9190612b71565b11610f7657600080fd5b600960009054906101000a900473ffffffffffffffffffffffffffffffffffffffff1673ffffffffffffffffffffffffffffffffffffffff166323b872dd8433600a546040518463ffffffff1660e01b8152600401610fd793929190612bc7565b6020604051808303816000875af1158015610ff6573d6000803e3d6000fd5b505050506040513d601f19601f8201168201806040525081019061101a9190612c13565b506110256008611967565b6000611031600861197d565b905061103d848261198b565b6110478184611b59565b8091505092915050565b61105961121f565b73ffffffffffffffffffffffffffffffffffffffff16611077610a55565b73ffffffffffffffffffffffffffffffffffffffff16146110cd576040517f08c379a00000000000000000000000000000000000000000000000000000000081526004016110c490612894565b60405180910390fd5b600073ffffffffffffffffffffffffffffffffffffffff168173ffffffffffffffffffffffffffffffffffffffff16141561113d576040517f08c379a000000000000000000000000000000000000000000000000000000000815260040161113490612cb2565b60405180910390fd5b6111468161161a565b50565b60007f01ffc9a7000000000000000000000000000000000000000000000000000000007bffffffffffffffffffffffffffffffffffffffffffffffffffffffff1916827bffffffffffffffffffffffffffffffffffffffffffffffffffffffff1916149050919050565b60008073ffffffffffffffffffffffffffffffffffffffff166002600084815260200190815260200160002060009054906101000a900473ffffffffffffffffffffffffffffffffffffffff1673ffffffffffffffffffffffffffffffffffffffff1614159050919050565b600033905090565b816004600083815260200190815260200160002060006101000a81548173ffffffffffffffffffffffffffffffffffffffff021916908373ffffffffffffffffffffffffffffffffffffffff160217905550808273ffffffffffffffffffffffffffffffffffffffff1661129a83610863565b73ffffffffffffffffffffffffffffffffffffffff167f8c5be1e5ebec7d5bd14f71427d1e84f3dd0314c0f7b2291e5b200ac8c7c3b92560405160405180910390a45050565b60006112eb826111b3565b61132a576040517f08c379a000000000000000000000000000000000000000000000000000000000815260040161132190612d44565b60405180910390fd5b600061133583610863565b90508073ffffffffffffffffffffffffffffffffffffffff168473ffffffffffffffffffffffffffffffffffffffff1614806113a457508373ffffffffffffffffffffffffffffffffffffffff1661138c84610544565b73ffffffffffffffffffffffffffffffffffffffff16145b806113b557506113b48185610ce5565b5b91505092915050565b8273ffffffffffffffffffffffffffffffffffffffff166113de82610863565b73ffffffffffffffffffffffffffffffffffffffff1614611434576040517f08c379a000000000000000000000000000000000000000000000000000000000815260040161142b90612dd6565b60405180910390fd5b600073ffffffffffffffffffffffffffffffffffffffff168273ffffffffffffffffffffffffffffffffffffffff1614156114a4576040517f08c379a000000000000000000000000000000000000000000000000000000000815260040161149b90612e68565b60405180910390fd5b6114af838383611bcd565b6114ba600082611227565b6001600360008573ffffffffffffffffffffffffffffffffffffffff1673ffffffffffffffffffffffffffffffffffffffff168152602001908152602001600020600082825461150a9190612eb7565b925050819055506001600360008473ffffffffffffffffffffffffffffffffffffffff1673ffffffffffffffffffffffffffffffffffffffff16815260200190815260200160002060008282546115619190612eeb565b92505081905550816002600083815260200190815260200160002060006101000a81548173ffffffffffffffffffffffffffffffffffffffff021916908373ffffffffffffffffffffffffffffffffffffffff160217905550808273ffffffffffffffffffffffffffffffffffffffff168473ffffffffffffffffffffffffffffffffffffffff167fddf252ad1be2c89b69c2b068fc378daa952ba7f163c4a11628f55a4df523b3ef60405160405180910390a4505050565b6000600760009054906101000a900473ffffffffffffffffffffffffffffffffffffffff16905081600760006101000a81548173ffffffffffffffffffffffffffffffffffffffff021916908373ffffffffffffffffffffffffffffffffffffffff1602179055508173ffffffffffffffffffffffffffffffffffffffff168173ffffffffffffffffffffffffffffffffffffffff167f8be0079c531659141344cd1fd0a4f28419497f9722a3daafe3b4186f6b6457e060405160405180910390a35050565b8173ffffffffffffffffffffffffffffffffffffffff168373ffffffffffffffffffffffffffffffffffffffff16141561174f576040517f08c379a000000000000000000000000000000000000000000000000000000000815260040161174690612f8d565b60405180910390fd5b80600560008573ffffffffffffffffffffffffffffffffffffffff1673ffffffffffffffffffffffffffffffffffffffff16815260200190815260200160002060008473ffffffffffffffffffffffffffffffffffffffff1673ffffffffffffffffffffffffffffffffffffffff16815260200190815260200160002060006101000a81548160ff0219169083151502179055508173ffffffffffffffffffffffffffffffffffffffff168373ffffffffffffffffffffffffffffffffffffffff167f17307eab39ab6107e8899845ad3d59bd9653f200f220920489ca2b5937696c31836040516118409190612025565b60405180910390a3505050565b6118588484846113be565b61186484848484611bd2565b6118a3576040517f08c379a000000000000000000000000000000000000000000000000000000000815260040161189a9061301f565b60405180910390fd5b50505050565b606060405180602001604052806000815250905090565b60606118cb826111b3565b61190a576040517f08c379a0000000000000000000000000000000000000000000000000000000008152600401611901906130b1565b60405180910390fd5b60006119146118a9565b90506000815111611934576040518060200160405280600081525061195f565b8061193e84611d5a565b60405160200161194f929190612b38565b6040516020818303038152906040525b915050919050565b6001816000016000828254019250508190555050565b600081600001549050919050565b600073ffffffffffffffffffffffffffffffffffffffff168273ffffffffffffffffffffffffffffffffffffffff1614156119fb576040517f08c379a00000000000000000000000000000000000000000000000000000000081526004016119f29061311d565b60405180910390fd5b611a04816111b3565b15611a44576040517f08c379a0000000000000000000000000000000000000000000000000000000008152600401611a3b90613189565b60405180910390fd5b611a5060008383611bcd565b6001600360008473ffffffffffffffffffffffffffffffffffffffff1673ffffffffffffffffffffffffffffffffffffffff1681526020019081526020016000206000828254611aa09190612eeb565b92505081905550816002600083815260200190815260200160002060006101000a81548173ffffffffffffffffffffffffffffffffffffffff021916908373ffffffffffffffffffffffffffffffffffffffff160217905550808273ffffffffffffffffffffffffffffffffffffffff16600073ffffffffffffffffffffffffffffffffffffffff167fddf252ad1be2c89b69c2b068fc378daa952ba7f163c4a11628f55a4df523b3ef60405160405180910390a45050565b611b62826111b3565b611ba1576040517f08c379a0000000000000000000000000000000000000000000000000000000008152600401611b989061321b565b60405180910390fd5b80600660008481526020019081526020016000209080519060200190611bc8929190611ece565b505050565b505050565b6000611bf38473ffffffffffffffffffffffffffffffffffffffff16611ebb565b15611d4d578373ffffffffffffffffffffffffffffffffffffffff1663150b7a02611c1c61121f565b8786866040518563ffffffff1660e01b8152600401611c3e9493929190613290565b6020604051808303816000875af1925050508015611c7a57506040513d601f19601f82011682018060405250810190611c7791906132f1565b60015b611cfd573d8060008114611caa576040519150601f19603f3d011682016040523d82523d6000602084013e611caf565b606091505b50600081511415611cf5576040517f08c379a0000000000000000000000000000000000000000000000000000000008152600401611cec9061301f565b60405180910390fd5b805181602001fd5b63150b7a0260e01b7bffffffffffffffffffffffffffffffffffffffffffffffffffffffff1916817bffffffffffffffffffffffffffffffffffffffffffffffffffffffff191614915050611d52565b600190505b949350505050565b60606000821415611da2576040518060400160405280600181526020017f30000000000000000000000000000000000000000000000000000000000000008152509050611eb6565b600082905060005b60008214611dd4578080611dbd9061331e565b915050600a82611dcd9190613396565b9150611daa565b60008167ffffffffffffffff811115611df057611def612346565b5b6040519080825280601f01601f191660200182016040528015611e225781602001600182028036833780820191505090505b5090505b60008514611eaf57600182611e3b9190612eb7565b9150600a85611e4a91906133c7565b6030611e569190612eeb565b60f81b818381518110611e6c57611e6b6133f8565b5b60200101907effffffffffffffffffffffffffffffffffffffffffffffffffffffffffffff1916908160001a905350600a85611ea89190613396565b9450611e26565b8093505050505b919050565b600080823b905060008111915050919050565b828054611eda90612660565b90600052602060002090601f016020900481019282611efc5760008555611f43565b82601f10611f1557805160ff1916838001178555611f43565b82800160010185558215611f43579182015b82811115611f42578251825591602001919060010190611f27565b5b509050611f509190611f54565b5090565b5b80821115611f6d576000816000905550600101611f55565b5090565b6000604051905090565b600080fd5b600080fd5b60007fffffffff0000000000000000000000000000000000000000000000000000000082169050919050565b611fba81611f85565b8114611fc557600080fd5b50565b600081359050611fd781611fb1565b92915050565b600060208284031215611ff357611ff2611f7b565b5b600061200184828501611fc8565b91505092915050565b60008115159050919050565b61201f8161200a565b82525050565b600060208201905061203a6000830184612016565b92915050565b600081519050919050565b600082825260208201905092915050565b60005b8381101561207a57808201518184015260208101905061205f565b83811115612089576000848401525b50505050565b6000601f19601f8301169050919050565b60006120ab82612040565b6120b5818561204b565b93506120c581856020860161205c565b6120ce8161208f565b840191505092915050565b600060208201905081810360008301526120f381846120a0565b905092915050565b6000819050919050565b61210e816120fb565b811461211957600080fd5b50565b60008135905061212b81612105565b92915050565b60006020828403121561214757612146611f7b565b5b60006121558482850161211c565b91505092915050565b600073ffffffffffffffffffffffffffffffffffffffff82169050919050565b60006121898261215e565b9050919050565b6121998161217e565b82525050565b60006020820190506121b46000830184612190565b92915050565b6121c38161217e565b81146121ce57600080fd5b50565b6000813590506121e0816121ba565b92915050565b600080604083850312156121fd576121fc611f7b565b5b600061220b858286016121d1565b925050602061221c8582860161211c565b9150509250929050565b60006020828403121561223c5761223b611f7b565b5b600061224a848285016121d1565b91505092915050565b60008060006060848603121561226c5761226b611f7b565b5b600061227a868287016121d1565b935050602061228b868287016121d1565b925050604061229c8682870161211c565b9150509250925092565b6122af816120fb565b82525050565b60006020820190506122ca60008301846122a6565b92915050565b6122d98161200a565b81146122e457600080fd5b50565b6000813590506122f6816122d0565b92915050565b6000806040838503121561231357612312611f7b565b5b6000612321858286016121d1565b9250506020612332858286016122e7565b9150509250929050565b600080fd5b600080fd5b7f4e487b7100000000000000000000000000000000000000000000000000000000600052604160045260246000fd5b61237e8261208f565b810181811067ffffffffffffffff8211171561239d5761239c612346565b5b80604052505050565b60006123b0611f71565b90506123bc8282612375565b919050565b600067ffffffffffffffff8211156123dc576123db612346565b5b6123e58261208f565b9050602081019050919050565b82818337600083830152505050565b600061241461240f846123c1565b6123a6565b9050828152602081018484840111156124305761242f612341565b5b61243b8482856123f2565b509392505050565b600082601f8301126124585761245761233c565b5b8135612468848260208601612401565b91505092915050565b6000806000806080858703121561248b5761248a611f7b565b5b6000612499878288016121d1565b94505060206124aa878288016121d1565b93505060406124bb8782880161211c565b925050606085013567ffffffffffffffff8111156124dc576124db611f80565b5b6124e887828801612443565b91505092959194509250565b6000806040838503121561250b5761250a611f7b565b5b6000612519858286016121d1565b925050602061252a858286016121d1565b9150509250929050565b600067ffffffffffffffff82111561254f5761254e612346565b5b6125588261208f565b9050602081019050919050565b600061257861257384612534565b6123a6565b90508281526020810184848401111561259457612593612341565b5b61259f8482856123f2565b509392505050565b600082601f8301126125bc576125bb61233c565b5b81356125cc848260208601612565565b91505092915050565b600080604083850312156125ec576125eb611f7b565b5b60006125fa858286016121d1565b925050602083013567ffffffffffffffff81111561261b5761261a611f80565b5b612627858286016125a7565b9150509250929050565b7f4e487b7100000000000000000000000000000000000000000000000000000000600052602260045260246000fd5b6000600282049050600182168061267857607f821691505b6020821081141561268c5761268b612631565b5b50919050565b7f4552433732313a20617070726f76656420717565727920666f72206e6f6e657860008201527f697374656e7420746f6b656e0000000000000000000000000000000000000000602082015250565b60006126ee602c8361204b565b91506126f982612692565b604082019050919050565b6000602082019050818103600083015261271d816126e1565b9050919050565b7f4552433732313a20617070726f76616c20746f2063757272656e74206f776e6560008201527f7200000000000000000000000000000000000000000000000000000000000000602082015250565b600061278060218361204b565b915061278b82612724565b604082019050919050565b600060208201905081810360008301526127af81612773565b9050919050565b7f4552433732313a20617070726f76652063616c6c6572206973206e6f74206f7760008201527f6e6572206e6f7220617070726f76656420666f7220616c6c0000000000000000602082015250565b600061281260388361204b565b915061281d826127b6565b604082019050919050565b6000602082019050818103600083015261284181612805565b9050919050565b7f4f776e61626c653a2063616c6c6572206973206e6f7420746865206f776e6572600082015250565b600061287e60208361204b565b915061288982612848565b602082019050919050565b600060208201905081810360008301526128ad81612871565b9050919050565b7f4552433732313a207472616e736665722063616c6c6572206973206e6f74206f60008201527f776e6572206e6f7220617070726f766564000000000000000000000000000000602082015250565b600061291060318361204b565b915061291b826128b4565b604082019050919050565b6000602082019050818103600083015261293f81612903565b9050919050565b7f4552433732313a206f776e657220717565727920666f72206e6f6e657869737460008201527f656e7420746f6b656e0000000000000000000000000000000000000000000000602082015250565b60006129a260298361204b565b91506129ad82612946565b604082019050919050565b600060208201905081810360008301526129d181612995565b9050919050565b7f4552433732313a2062616c616e636520717565727920666f7220746865207a6560008201527f726f206164647265737300000000000000000000000000000000000000000000602082015250565b6000612a34602a8361204b565b9150612a3f826129d8565b604082019050919050565b60006020820190508181036000830152612a6381612a27565b9050919050565b7f45524337323155524953746f726167653a2055524920717565727920666f722060008201527f6e6f6e6578697374656e7420746f6b656e000000000000000000000000000000602082015250565b6000612ac660318361204b565b9150612ad182612a6a565b604082019050919050565b60006020820190508181036000830152612af581612ab9565b9050919050565b600081905092915050565b6000612b1282612040565b612b1c8185612afc565b9350612b2c81856020860161205c565b80840191505092915050565b6000612b448285612b07565b9150612b508284612b07565b91508190509392505050565b600081519050612b6b81612105565b92915050565b600060208284031215612b8757612b86611f7b565b5b6000612b9584828501612b5c565b91505092915050565b6000604082019050612bb360008301856122a6565b612bc060208301846122a6565b9392505050565b6000606082019050612bdc6000830186612190565b612be96020830185612190565b612bf660408301846122a6565b949350505050565b600081519050612c0d816122d0565b92915050565b600060208284031215612c2957612c28611f7b565b5b6000612c3784828501612bfe565b91505092915050565b7f4f776e61626c653a206e6577206f776e657220697320746865207a65726f206160008201527f6464726573730000000000000000000000000000000000000000000000000000602082015250565b6000612c9c60268361204b565b9150612ca782612c40565b604082019050919050565b60006020820190508181036000830152612ccb81612c8f565b9050919050565b7f4552433732313a206f70657261746f7220717565727920666f72206e6f6e657860008201527f697374656e7420746f6b656e0000000000000000000000000000000000000000602082015250565b6000612d2e602c8361204b565b9150612d3982612cd2565b604082019050919050565b60006020820190508181036000830152612d5d81612d21565b9050919050565b7f4552433732313a207472616e73666572206f6620746f6b656e2074686174206960008201527f73206e6f74206f776e0000000000000000000000000000000000000000000000602082015250565b6000612dc060298361204b565b9150612dcb82612d64565b604082019050919050565b60006020820190508181036000830152612def81612db3565b9050919050565b7f4552433732313a207472616e7366657220746f20746865207a65726f2061646460008201527f7265737300000000000000000000000000000000000000000000000000000000602082015250565b6000612e5260248361204b565b9150612e5d82612df6565b604082019050919050565b60006020820190508181036000830152612e8181612e45565b9050919050565b7f4e487b7100000000000000000000000000000000000000000000000000000000600052601160045260246000fd5b6000612ec2826120fb565b9150612ecd836120fb565b925082821015612ee057612edf612e88565b5b828203905092915050565b6000612ef6826120fb565b9150612f01836120fb565b9250827fffffffffffffffffffffffffffffffffffffffffffffffffffffffffffffffff03821115612f3657612f35612e88565b5b828201905092915050565b7f4552433732313a20617070726f766520746f2063616c6c657200000000000000600082015250565b6000612f7760198361204b565b9150612f8282612f41565b602082019050919050565b60006020820190508181036000830152612fa681612f6a565b9050919050565b7f4552433732313a207472616e7366657220746f206e6f6e20455243373231526560008201527f63656976657220696d706c656d656e7465720000000000000000000000000000602082015250565b600061300960328361204b565b915061301482612fad565b604082019050919050565b6000602082019050818103600083015261303881612ffc565b9050919050565b7f4552433732314d657461646174613a2055524920717565727920666f72206e6f60008201527f6e6578697374656e7420746f6b656e0000000000000000000000000000000000602082015250565b600061309b602f8361204b565b91506130a68261303f565b604082019050919050565b600060208201905081810360008301526130ca8161308e565b9050919050565b7f4552433732313a206d696e7420746f20746865207a65726f2061646472657373600082015250565b600061310760208361204b565b9150613112826130d1565b602082019050919050565b60006020820190508181036000830152613136816130fa565b9050919050565b7f4552433732313a20746f6b656e20616c7265616479206d696e74656400000000600082015250565b6000613173601c8361204b565b915061317e8261313d565b602082019050919050565b600060208201905081810360008301526131a281613166565b9050919050565b7f45524337323155524953746f726167653a2055524920736574206f66206e6f6e60008201527f6578697374656e7420746f6b656e000000000000000000000000000000000000602082015250565b6000613205602e8361204b565b9150613210826131a9565b604082019050919050565b60006020820190508181036000830152613234816131f8565b9050919050565b600081519050919050565b600082825260208201905092915050565b60006132628261323b565b61326c8185613246565b935061327c81856020860161205c565b6132858161208f565b840191505092915050565b60006080820190506132a56000830187612190565b6132b26020830186612190565b6132bf60408301856122a6565b81810360608301526132d18184613257565b905095945050505050565b6000815190506132eb81611fb1565b92915050565b60006020828403121561330757613306611f7b565b5b6000613315848285016132dc565b91505092915050565b6000613329826120fb565b91507fffffffffffffffffffffffffffffffffffffffffffffffffffffffffffffffff82141561335c5761335b612e88565b5b600182019050919050565b7f4e487b7100000000000000000000000000000000000000000000000000000000600052601260045260246000fd5b60006133a1826120fb565b91506133ac836120fb565b9250826133bc576133bb613367565b5b828204905092915050565b60006133d2826120fb565b91506133dd836120fb565b9250826133ed576133ec613367565b5b828206905092915050565b7f4e487b7100000000000000000000000000000000000000000000000000000000600052603260045260246000fdfea26469706673582212200d7ea4711a70621a0d94923acb8c2c89b8990a58eca34251b97287b48c362d5a64736f6c634300080a0033",
  "immutableReferences": {},
  "source": "// SPDX-License-Identifier: MIT\npragma solidity 0.8.10;\n\nimport \"@openzeppelin/contracts/token/ERC721/ERC721.sol\";\nimport \"@openzeppelin/contracts/utils/Counters.sol\";\nimport \"@openzeppelin/contracts/access/Ownable.sol\";\nimport \"@openzeppelin/contracts/token/ERC721/extensions/ERC721URIStorage.sol\";\nimport \"@openzeppelin/contracts/token/ERC20/IERC20.sol\";\n\ncontract NFTLootBox is ERC721URIStorage, Ownable {\n    using Counters for Counters.Counter;\n    Counters.Counter private _tokenIds;\n    IERC20 token;\n    uint256 nftPrice;\n\n    constructor() ERC721(\"MyNFTs\", \"MNFT\") {\n        nftPrice = 100e18;\n    }\n\n    event mintNFTLog(uint256 recipient_balance, uint256 nftPrice);\n\n    function mintNFT(address recipient, string memory tokenURI)\n        public\n        onlyOwner\n        returns (uint256)\n    {\n        emit mintNFTLog(token.balanceOf(recipient), nftPrice);\n        require(token.balanceOf(recipient) > nftPrice);\n\n        token.transferFrom(recipient, msg.sender, nftPrice);\n\n        _tokenIds.increment();\n        uint256 newItemId = _tokenIds.current();\n        _mint(recipient, newItemId);\n        _setTokenURI(newItemId, tokenURI);\n\n        return newItemId;\n    }\n\n    function setToken(address tokenAddress) public onlyOwner returns (bool) {\n        require(tokenAddress != address(0x0));\n        token = IERC20(tokenAddress);\n        return true;\n    }\n\n    function getNftPrice() public view returns (uint256) {\n        return nftPrice;\n    }\n}\n",
  "sourcePath": "/Users/hyun/codestates/BEB_01_Project2_06/daemon/contracts/NFTLootBox.sol",
  "compiler": {
    "name": "solc",
    "version": "0.8.10+commit.fc410830.Emscripten.clang"
  },
  "schemaVersion": "3.4.3",
  "updatedAt": "2021-12-27T03:38:45.403Z",
  "networkType": "ethereum",
  "devdoc": {
    "kind": "dev",
    "methods": {
      "approve(address,uint256)": {
        "details": "See {IERC721-approve}."
      },
      "balanceOf(address)": {
        "details": "See {IERC721-balanceOf}."
      },
      "getApproved(uint256)": {
        "details": "See {IERC721-getApproved}."
      },
      "isApprovedForAll(address,address)": {
        "details": "See {IERC721-isApprovedForAll}."
      },
      "name()": {
        "details": "See {IERC721Metadata-name}."
      },
      "owner()": {
        "details": "Returns the address of the current owner."
      },
      "ownerOf(uint256)": {
        "details": "See {IERC721-ownerOf}."
      },
      "renounceOwnership()": {
        "details": "Leaves the contract without owner. It will not be possible to call `onlyOwner` functions anymore. Can only be called by the current owner. NOTE: Renouncing ownership will leave the contract without an owner, thereby removing any functionality that is only available to the owner."
      },
      "safeTransferFrom(address,address,uint256)": {
        "details": "See {IERC721-safeTransferFrom}."
      },
      "safeTransferFrom(address,address,uint256,bytes)": {
        "details": "See {IERC721-safeTransferFrom}."
      },
      "setApprovalForAll(address,bool)": {
        "details": "See {IERC721-setApprovalForAll}."
      },
      "supportsInterface(bytes4)": {
        "details": "See {IERC165-supportsInterface}."
      },
      "symbol()": {
        "details": "See {IERC721Metadata-symbol}."
      },
      "tokenURI(uint256)": {
        "details": "See {IERC721Metadata-tokenURI}."
      },
      "transferFrom(address,address,uint256)": {
        "details": "See {IERC721-transferFrom}."
      },
      "transferOwnership(address)": {
        "details": "Transfers ownership of the contract to a new account (`newOwner`). Can only be called by the current owner."
      }
    },
    "version": 1
  },
  "userdoc": {
    "kind": "user",
    "methods": {},
    "version": 1
  }
}